{
  "_format": "hh-sol-artifact-1",
  "contractName": "NFTMarketplace",
  "sourceName": "contracts/NFTMarketplace.sol",
  "abi": [
    {
      "inputs": [],
      "stateMutability": "nonpayable",
      "type": "constructor"
    },
    {
      "anonymous": false,
      "inputs": [
        {
          "indexed": true,
          "internalType": "address",
          "name": "owner",
          "type": "address"
        },
        {
          "indexed": true,
          "internalType": "address",
          "name": "approved",
          "type": "address"
        },
        {
          "indexed": true,
          "internalType": "uint256",
          "name": "tokenId",
          "type": "uint256"
        }
      ],
      "name": "Approval",
      "type": "event"
    },
    {
      "anonymous": false,
      "inputs": [
        {
          "indexed": true,
          "internalType": "address",
          "name": "owner",
          "type": "address"
        },
        {
          "indexed": true,
          "internalType": "address",
          "name": "operator",
          "type": "address"
        },
        {
          "indexed": false,
          "internalType": "bool",
          "name": "approved",
          "type": "bool"
        }
      ],
      "name": "ApprovalForAll",
      "type": "event"
    },
    {
      "anonymous": false,
      "inputs": [
        {
          "indexed": true,
          "internalType": "address",
          "name": "from",
          "type": "address"
        },
        {
          "indexed": true,
          "internalType": "address",
          "name": "to",
          "type": "address"
        },
        {
          "indexed": true,
          "internalType": "uint256",
          "name": "tokenId",
          "type": "uint256"
        }
      ],
      "name": "Transfer",
      "type": "event"
    },
    {
      "anonymous": false,
      "inputs": [
        {
          "indexed": true,
          "internalType": "uint256",
          "name": "tokenId",
          "type": "uint256"
        },
        {
          "indexed": false,
          "internalType": "address",
          "name": "seller",
          "type": "address"
        },
        {
          "indexed": false,
          "internalType": "address",
          "name": "owner",
          "type": "address"
        },
        {
          "indexed": false,
          "internalType": "uint256",
          "name": "price",
          "type": "uint256"
        },
        {
          "indexed": false,
          "internalType": "bool",
          "name": "sold",
          "type": "bool"
        }
      ],
      "name": "idMarketItemCreated",
      "type": "event"
    },
    {
      "inputs": [
        {
          "internalType": "address",
          "name": "to",
          "type": "address"
        },
        {
          "internalType": "uint256",
          "name": "tokenId",
          "type": "uint256"
        }
      ],
      "name": "approve",
      "outputs": [],
      "stateMutability": "nonpayable",
      "type": "function"
    },
    {
      "inputs": [
        {
          "internalType": "address",
          "name": "owner",
          "type": "address"
        }
      ],
      "name": "balanceOf",
      "outputs": [
        {
          "internalType": "uint256",
          "name": "",
          "type": "uint256"
        }
      ],
      "stateMutability": "view",
      "type": "function"
    },
    {
      "inputs": [
        {
          "internalType": "uint256",
          "name": "tokenId",
          "type": "uint256"
        }
      ],
      "name": "createMarketSale",
      "outputs": [],
      "stateMutability": "payable",
      "type": "function"
    },
    {
      "inputs": [
        {
          "internalType": "string",
          "name": "tokenURI",
          "type": "string"
        },
        {
          "internalType": "uint256",
          "name": "price",
          "type": "uint256"
        }
      ],
      "name": "createToken",
      "outputs": [
        {
          "internalType": "uint256",
          "name": "",
          "type": "uint256"
        }
      ],
      "stateMutability": "payable",
      "type": "function"
    },
    {
      "inputs": [],
      "name": "fecthMyNFT",
      "outputs": [
        {
          "components": [
            {
              "internalType": "uint256",
              "name": "tokenId",
              "type": "uint256"
            },
            {
              "internalType": "address payable",
              "name": "seller",
              "type": "address"
            },
            {
              "internalType": "address payable",
              "name": "owner",
              "type": "address"
            },
            {
              "internalType": "uint256",
              "name": "price",
              "type": "uint256"
            },
            {
              "internalType": "bool",
              "name": "sold",
              "type": "bool"
            }
          ],
          "internalType": "struct NFTMarketplace.MarketItem[]",
          "name": "",
          "type": "tuple[]"
        }
      ],
      "stateMutability": "view",
      "type": "function"
    },
    {
      "inputs": [],
      "name": "fetchItemsListed",
      "outputs": [
        {
          "components": [
            {
              "internalType": "uint256",
              "name": "tokenId",
              "type": "uint256"
            },
            {
              "internalType": "address payable",
              "name": "seller",
              "type": "address"
            },
            {
              "internalType": "address payable",
              "name": "owner",
              "type": "address"
            },
            {
              "internalType": "uint256",
              "name": "price",
              "type": "uint256"
            },
            {
              "internalType": "bool",
              "name": "sold",
              "type": "bool"
            }
          ],
          "internalType": "struct NFTMarketplace.MarketItem[]",
          "name": "",
          "type": "tuple[]"
        }
      ],
      "stateMutability": "view",
      "type": "function"
    },
    {
      "inputs": [],
      "name": "fetchMarketitem",
      "outputs": [
        {
          "components": [
            {
              "internalType": "uint256",
              "name": "tokenId",
              "type": "uint256"
            },
            {
              "internalType": "address payable",
              "name": "seller",
              "type": "address"
            },
            {
              "internalType": "address payable",
              "name": "owner",
              "type": "address"
            },
            {
              "internalType": "uint256",
              "name": "price",
              "type": "uint256"
            },
            {
              "internalType": "bool",
              "name": "sold",
              "type": "bool"
            }
          ],
          "internalType": "struct NFTMarketplace.MarketItem[]",
          "name": "",
          "type": "tuple[]"
        }
      ],
      "stateMutability": "view",
      "type": "function"
    },
    {
      "inputs": [
        {
          "internalType": "uint256",
          "name": "tokenId",
          "type": "uint256"
        }
      ],
      "name": "getApproved",
      "outputs": [
        {
          "internalType": "address",
          "name": "",
          "type": "address"
        }
      ],
      "stateMutability": "view",
      "type": "function"
    },
    {
      "inputs": [],
      "name": "getListingPrice",
      "outputs": [
        {
          "internalType": "uint256",
          "name": "",
          "type": "uint256"
        }
      ],
      "stateMutability": "view",
      "type": "function"
    },
    {
      "inputs": [
        {
          "internalType": "address",
          "name": "owner",
          "type": "address"
        },
        {
          "internalType": "address",
          "name": "operator",
          "type": "address"
        }
      ],
      "name": "isApprovedForAll",
      "outputs": [
        {
          "internalType": "bool",
          "name": "",
          "type": "bool"
        }
      ],
      "stateMutability": "view",
      "type": "function"
    },
    {
      "inputs": [],
      "name": "name",
      "outputs": [
        {
          "internalType": "string",
          "name": "",
          "type": "string"
        }
      ],
      "stateMutability": "view",
      "type": "function"
    },
    {
      "inputs": [
        {
          "internalType": "uint256",
          "name": "tokenId",
          "type": "uint256"
        }
      ],
      "name": "ownerOf",
      "outputs": [
        {
          "internalType": "address",
          "name": "",
          "type": "address"
        }
      ],
      "stateMutability": "view",
      "type": "function"
    },
    {
      "inputs": [
        {
          "internalType": "uint256",
          "name": "tokenId",
          "type": "uint256"
        },
        {
          "internalType": "uint256",
          "name": "price",
          "type": "uint256"
        }
      ],
      "name": "reSellToken",
      "outputs": [],
      "stateMutability": "payable",
      "type": "function"
    },
    {
      "inputs": [
        {
          "internalType": "address",
          "name": "from",
          "type": "address"
        },
        {
          "internalType": "address",
          "name": "to",
          "type": "address"
        },
        {
          "internalType": "uint256",
          "name": "tokenId",
          "type": "uint256"
        }
      ],
      "name": "safeTransferFrom",
      "outputs": [],
      "stateMutability": "nonpayable",
      "type": "function"
    },
    {
      "inputs": [
        {
          "internalType": "address",
          "name": "from",
          "type": "address"
        },
        {
          "internalType": "address",
          "name": "to",
          "type": "address"
        },
        {
          "internalType": "uint256",
          "name": "tokenId",
          "type": "uint256"
        },
        {
          "internalType": "bytes",
          "name": "data",
          "type": "bytes"
        }
      ],
      "name": "safeTransferFrom",
      "outputs": [],
      "stateMutability": "nonpayable",
      "type": "function"
    },
    {
      "inputs": [
        {
          "internalType": "address",
          "name": "operator",
          "type": "address"
        },
        {
          "internalType": "bool",
          "name": "approved",
          "type": "bool"
        }
      ],
      "name": "setApprovalForAll",
      "outputs": [],
      "stateMutability": "nonpayable",
      "type": "function"
    },
    {
      "inputs": [
        {
          "internalType": "bytes4",
          "name": "interfaceId",
          "type": "bytes4"
        }
      ],
      "name": "supportsInterface",
      "outputs": [
        {
          "internalType": "bool",
          "name": "",
          "type": "bool"
        }
      ],
      "stateMutability": "view",
      "type": "function"
    },
    {
      "inputs": [],
      "name": "symbol",
      "outputs": [
        {
          "internalType": "string",
          "name": "",
          "type": "string"
        }
      ],
      "stateMutability": "view",
      "type": "function"
    },
    {
      "inputs": [
        {
          "internalType": "uint256",
          "name": "tokenId",
          "type": "uint256"
        }
      ],
      "name": "tokenURI",
      "outputs": [
        {
          "internalType": "string",
          "name": "",
          "type": "string"
        }
      ],
      "stateMutability": "view",
      "type": "function"
    },
    {
      "inputs": [
        {
          "internalType": "address",
          "name": "from",
          "type": "address"
        },
        {
          "internalType": "address",
          "name": "to",
          "type": "address"
        },
        {
          "internalType": "uint256",
          "name": "tokenId",
          "type": "uint256"
        }
      ],
      "name": "transferFrom",
      "outputs": [],
      "stateMutability": "nonpayable",
      "type": "function"
    },
    {
      "inputs": [
        {
          "internalType": "uint256",
          "name": "_ListingPrice",
          "type": "uint256"
        }
      ],
      "name": "updateListingPrice",
      "outputs": [],
      "stateMutability": "payable",
      "type": "function"
    }
  ],
  "bytecode": "0x60806040526608e1bc9bf040006009553480156200001c57600080fd5b506040518060400160405280601381526020017f4e4654204d657461766172736520546f6b656e000000000000000000000000008152506040518060400160405280600581526020017f4d594e465400000000000000000000000000000000000000000000000000000081525081600090816200009a919062000355565b508060019081620000ac919062000355565b5050503373ffffffffffffffffffffffffffffffffffffffff16600a60009054906101000a905050506200043c565b600081519050919050565b7f4e487b7100000000000000000000000000000000000000000000000000000000600052604160045260246000fd5b7f4e487b7100000000000000000000000000000000000000000000000000000000600052602260045260246000fd5b600060028204905060018216806200015d57607f821691505b60208210810362000173576200017262000115565b5b50919050565b60008190508160005260206000209050919050565b60006020601f8301049050919050565b600082821b905092915050565b600060088302620001dd7fffffffffffffffffffffffffffffffffffffffffffffffffffffffffffffffff826200019e565b620001e986836200019e565b95508019841693508086168417925050509392505050565b6000819050919050565b6000819050919050565b600062000236620002306200022a8462000201565b6200020b565b62000201565b9050919050565b6000819050919050565b620002528362000215565b6200026a62000261826200023d565b848454620001ab565b825550505050565b600090565b6200028162000272565b6200028e81848462000247565b505050565b5b81811015620002b657620002aa60008262000277565b60018101905062000294565b5050565b601f8211156200030557620002cf8162000179565b620002da846200018e565b81016020851015620002ea578190505b62000302620002f9856200018e565b83018262000293565b50505b505050565b600082821c905092915050565b60006200032a600019846008026200030a565b1980831691505092915050565b600062000345838362000317565b9150826002028217905092915050565b6200036082620000db565b67ffffffffffffffff8111156200037c576200037b620000e6565b5b62000388825462000144565b62000395828285620002ba565b600060209050601f831160018114620003cd5760008415620003b8578287015190505b620003c4858262000337565b86555062000434565b601f198416620003dd8662000179565b60005b828110156200040757848901518255600182019150602085019450602081019050620003e0565b8683101562000427578489015162000423601f89168262000317565b8355505b6001600288020188555050505b505050505050565b614343806200044c6000396000f3fe60806040526004361061012a5760003560e01c806372b3b620116100ab578063ae677aa31161006f578063ae677aa3146103ea578063b83eb6c414610406578063b88d4fde14610431578063be9af5361461045a578063c87b56dd14610476578063e985e9c5146104b35761012a565b806372b3b6201461031f57806383a071ae1461034f57806385535b251461037a57806395d89b4114610396578063a22cb465146103c15761012a565b806323b872dd116100f257806323b872dd1461022857806342842e0e1461025157806345f8fa801461027a5780636352211e146102a557806370a08231146102e25761012a565b806301ffc9a71461012f57806306fdde031461016c578063081812fc14610197578063095ea7b3146101d457806312e85585146101fd575b600080fd5b34801561013b57600080fd5b5061015660048036038101906101519190612c07565b6104f0565b6040516101639190612c4f565b60405180910390f35b34801561017857600080fd5b506101816105d2565b60405161018e9190612cfa565b60405180910390f35b3480156101a357600080fd5b506101be60048036038101906101b99190612d52565b610664565b6040516101cb9190612dc0565b60405180910390f35b3480156101e057600080fd5b506101fb60048036038101906101f69190612e07565b6106aa565b005b34801561020957600080fd5b506102126107c1565b60405161021f9190612e56565b60405180910390f35b34801561023457600080fd5b5061024f600480360381019061024a9190612e71565b6107cb565b005b34801561025d57600080fd5b5061027860048036038101906102739190612e71565b61082b565b005b34801561028657600080fd5b5061028f61084b565b60405161029c919061301a565b60405180910390f35b3480156102b157600080fd5b506102cc60048036038101906102c79190612d52565b610b25565b6040516102d99190612dc0565b60405180910390f35b3480156102ee57600080fd5b506103096004803603810190610304919061303c565b610bab565b6040516103169190612e56565b60405180910390f35b6103396004803603810190610334919061319e565b610c62565b6040516103469190612e56565b60405180910390f35b34801561035b57600080fd5b50610364610ca4565b604051610371919061301a565b60405180910390f35b610394600480360381019061038f91906131fa565b610f0c565b005b3480156103a257600080fd5b506103ab611101565b6040516103b89190612cfa565b60405180910390f35b3480156103cd57600080fd5b506103e860048036038101906103e39190613266565b611193565b005b61040460048036038101906103ff9190612d52565b6111a9565b005b34801561041257600080fd5b5061041b611245565b604051610428919061301a565b60405180910390f35b34801561043d57600080fd5b5061045860048036038101906104539190613347565b611531565b005b610474600480360381019061046f9190612d52565b611593565b005b34801561048257600080fd5b5061049d60048036038101906104989190612d52565b6117cb565b6040516104aa9190612cfa565b60405180910390f35b3480156104bf57600080fd5b506104da60048036038101906104d591906133ca565b6118dd565b6040516104e79190612c4f565b60405180910390f35b60007f80ac58cd000000000000000000000000000000000000000000000000000000007bffffffffffffffffffffffffffffffffffffffffffffffffffffffff1916827bffffffffffffffffffffffffffffffffffffffffffffffffffffffff191614806105bb57507f5b5e139f000000000000000000000000000000000000000000000000000000007bffffffffffffffffffffffffffffffffffffffffffffffffffffffff1916827bffffffffffffffffffffffffffffffffffffffffffffffffffffffff1916145b806105cb57506105ca82611971565b5b9050919050565b6060600080546105e190613439565b80601f016020809104026020016040519081016040528092919081815260200182805461060d90613439565b801561065a5780601f1061062f5761010080835404028352916020019161065a565b820191906000526020600020905b81548152906001019060200180831161063d57829003601f168201915b5050505050905090565b600061066f826119db565b6004600083815260200190815260200160002060009054906101000a900473ffffffffffffffffffffffffffffffffffffffff169050919050565b60006106b582610b25565b90508073ffffffffffffffffffffffffffffffffffffffff168373ffffffffffffffffffffffffffffffffffffffff1603610725576040517f08c379a000000000000000000000000000000000000000000000000000000000815260040161071c906134dc565b60405180910390fd5b8073ffffffffffffffffffffffffffffffffffffffff16610744611a26565b73ffffffffffffffffffffffffffffffffffffffff16148061077357506107728161076d611a26565b6118dd565b5b6107b2576040517f08c379a00000000000000000000000000000000000000000000000000000000081526004016107a99061356e565b60405180910390fd5b6107bc8383611a2e565b505050565b6000600954905090565b6107dc6107d6611a26565b82611ae7565b61081b576040517f08c379a000000000000000000000000000000000000000000000000000000000815260040161081290613600565b60405180910390fd5b610826838383611b7c565b505050565b61084683838360405180602001604052806000815250611531565b505050565b606060006108596007611e75565b905060008060005b83811015610901573373ffffffffffffffffffffffffffffffffffffffff16600b6000600184610891919061364f565b815260200190815260200160002060010160009054906101000a900473ffffffffffffffffffffffffffffffffffffffff1673ffffffffffffffffffffffffffffffffffffffff16036108ee576001836108eb919061364f565b92505b80806108f990613683565b915050610861565b5060008267ffffffffffffffff81111561091e5761091d613073565b5b60405190808252806020026020018201604052801561095757816020015b610944612b3e565b81526020019060019003908161093c5790505b50905060005b84811015610b1d573373ffffffffffffffffffffffffffffffffffffffff16600b600060018461098d919061364f565b815260200190815260200160002060010160009054906101000a900473ffffffffffffffffffffffffffffffffffffffff1673ffffffffffffffffffffffffffffffffffffffff1603610b0a5760006001826109e9919061364f565b90506000600b60008381526020019081526020016000209050806040518060a0016040529081600082015481526020016001820160009054906101000a900473ffffffffffffffffffffffffffffffffffffffff1673ffffffffffffffffffffffffffffffffffffffff1673ffffffffffffffffffffffffffffffffffffffff1681526020016002820160009054906101000a900473ffffffffffffffffffffffffffffffffffffffff1673ffffffffffffffffffffffffffffffffffffffff1673ffffffffffffffffffffffffffffffffffffffff168152602001600382015481526020016004820160009054906101000a900460ff161515151581525050848681518110610afc57610afb6136cb565b5b602002602001018190525050505b8080610b1590613683565b91505061095d565b505050505090565b600080610b3183611e83565b9050600073ffffffffffffffffffffffffffffffffffffffff168173ffffffffffffffffffffffffffffffffffffffff1603610ba2576040517f08c379a0000000000000000000000000000000000000000000000000000000008152600401610b9990613746565b60405180910390fd5b80915050919050565b60008073ffffffffffffffffffffffffffffffffffffffff168273ffffffffffffffffffffffffffffffffffffffff1603610c1b576040517f08c379a0000000000000000000000000000000000000000000000000000000008152600401610c12906137d8565b60405180910390fd5b600360008373ffffffffffffffffffffffffffffffffffffffff1673ffffffffffffffffffffffffffffffffffffffff168152602001908152602001600020549050919050565b6000610c6e6007611ec0565b6000610c7a6007611e75565b9050610c863382611ed6565b610c9081856120f3565b610c9a8184612160565b8091505092915050565b60606000610cb26007611e75565b90506000610cc06008611e75565b610cca6007611e75565b610cd491906137f8565b90506000808267ffffffffffffffff811115610cf357610cf2613073565b5b604051908082528060200260200182016040528015610d2c57816020015b610d19612b3e565b815260200190600190039081610d115790505b50905060005b84811015610f01573073ffffffffffffffffffffffffffffffffffffffff16600b6000600184610d62919061364f565b815260200190815260200160002060020160009054906101000a900473ffffffffffffffffffffffffffffffffffffffff1673ffffffffffffffffffffffffffffffffffffffff1603610eee576000600182610dbe919061364f565b90506000600b60008381526020019081526020016000209050806040518060a0016040529081600082015481526020016001820160009054906101000a900473ffffffffffffffffffffffffffffffffffffffff1673ffffffffffffffffffffffffffffffffffffffff1673ffffffffffffffffffffffffffffffffffffffff1681526020016002820160009054906101000a900473ffffffffffffffffffffffffffffffffffffffff1673ffffffffffffffffffffffffffffffffffffffff1673ffffffffffffffffffffffffffffffffffffffff168152602001600382015481526020016004820160009054906101000a900460ff161515151581525050848681518110610ed157610ed06136cb565b5b6020026020010181905250600185610ee9919061364f565b945050505b8080610ef990613683565b915050610d32565b508094505050505090565b3373ffffffffffffffffffffffffffffffffffffffff16600b600084815260200190815260200160002060020160009054906101000a900473ffffffffffffffffffffffffffffffffffffffff1673ffffffffffffffffffffffffffffffffffffffff1614610fb0576040517f08c379a0000000000000000000000000000000000000000000000000000000008152600401610fa79061389e565b60405180910390fd5b6009543414610ff4576040517f08c379a0000000000000000000000000000000000000000000000000000000008152600401610feb90613930565b60405180910390fd5b6000600b600084815260200190815260200160002060040160006101000a81548160ff02191690831515021790555080600b60008481526020019081526020016000206003018190555033600b600084815260200190815260200160002060010160006101000a81548173ffffffffffffffffffffffffffffffffffffffff021916908373ffffffffffffffffffffffffffffffffffffffff16021790555030600b600084815260200190815260200160002060020160006101000a81548173ffffffffffffffffffffffffffffffffffffffff021916908373ffffffffffffffffffffffffffffffffffffffff1602179055506110f26008612363565b6110fd333084611b7c565b5050565b60606001805461111090613439565b80601f016020809104026020016040519081016040528092919081815260200182805461113c90613439565b80156111895780601f1061115e57610100808354040283529160200191611189565b820191906000526020600020905b81548152906001019060200180831161116c57829003601f168201915b5050505050905090565b6111a561119e611a26565b83836123bf565b5050565b600a60009054906101000a900473ffffffffffffffffffffffffffffffffffffffff1673ffffffffffffffffffffffffffffffffffffffff163373ffffffffffffffffffffffffffffffffffffffff1614611239576040517f08c379a0000000000000000000000000000000000000000000000000000000008152600401611230906139c2565b60405180910390fd5b60095460098190555050565b606060006112536007611e75565b905060008060005b838110156112fb573373ffffffffffffffffffffffffffffffffffffffff16600b600060018461128b919061364f565b815260200190815260200160002060020160009054906101000a900473ffffffffffffffffffffffffffffffffffffffff1673ffffffffffffffffffffffffffffffffffffffff16036112e8576001836112e5919061364f565b92505b80806112f390613683565b91505061125b565b5060008267ffffffffffffffff81111561131857611317613073565b5b60405190808252806020026020018201604052801561135157816020015b61133e612b3e565b8152602001906001900390816113365790505b50905060005b84811015611526573373ffffffffffffffffffffffffffffffffffffffff16600b6000600184611387919061364f565b815260200190815260200160002060020160009054906101000a900473ffffffffffffffffffffffffffffffffffffffff1673ffffffffffffffffffffffffffffffffffffffff16036115135760006001826113e3919061364f565b90506000600b60008381526020019081526020016000209050806040518060a0016040529081600082015481526020016001820160009054906101000a900473ffffffffffffffffffffffffffffffffffffffff1673ffffffffffffffffffffffffffffffffffffffff1673ffffffffffffffffffffffffffffffffffffffff1681526020016002820160009054906101000a900473ffffffffffffffffffffffffffffffffffffffff1673ffffffffffffffffffffffffffffffffffffffff1673ffffffffffffffffffffffffffffffffffffffff168152602001600382015481526020016004820160009054906101000a900460ff1615151515815250508486815181106114f6576114f56136cb565b5b602002602001018190525060018561150e919061364f565b945050505b808061151e90613683565b915050611357565b508094505050505090565b61154261153c611a26565b83611ae7565b611581576040517f08c379a000000000000000000000000000000000000000000000000000000000815260040161157890613600565b60405180910390fd5b61158d8484848461252b565b50505050565b6000600b60008381526020019081526020016000206003015490508034146115f0576040517f08c379a00000000000000000000000000000000000000000000000000000000081526004016115e790613a54565b60405180910390fd5b33600b600084815260200190815260200160002060020160006101000a81548173ffffffffffffffffffffffffffffffffffffffff021916908373ffffffffffffffffffffffffffffffffffffffff1602179055506001600b600084815260200190815260200160002060040160006101000a81548160ff0219169083151502179055506000600b600084815260200190815260200160002060020160006101000a81548173ffffffffffffffffffffffffffffffffffffffff021916908373ffffffffffffffffffffffffffffffffffffffff1602179055506116d46008611ec0565b6116df303384611b7c565b600a60009054906101000a900473ffffffffffffffffffffffffffffffffffffffff1673ffffffffffffffffffffffffffffffffffffffff166108fc6009549081150290604051600060405180830381858888f19350505050158015611749573d6000803e3d6000fd5b50600b600083815260200190815260200160002060010160009054906101000a900473ffffffffffffffffffffffffffffffffffffffff1673ffffffffffffffffffffffffffffffffffffffff166108fc349081150290604051600060405180830381858888f193505050501580156117c6573d6000803e3d6000fd5b505050565b60606117d6826119db565b60006006600084815260200190815260200160002080546117f690613439565b80601f016020809104026020016040519081016040528092919081815260200182805461182290613439565b801561186f5780601f106118445761010080835404028352916020019161186f565b820191906000526020600020905b81548152906001019060200180831161185257829003601f168201915b505050505090506000611880612587565b905060008151036118955781925050506118d8565b6000825111156118ca5780826040516020016118b2929190613ab0565b604051602081830303815290604052925050506118d8565b6118d38461259e565b925050505b919050565b6000600560008473ffffffffffffffffffffffffffffffffffffffff1673ffffffffffffffffffffffffffffffffffffffff16815260200190815260200160002060008373ffffffffffffffffffffffffffffffffffffffff1673ffffffffffffffffffffffffffffffffffffffff16815260200190815260200160002060009054906101000a900460ff16905092915050565b60007f01ffc9a7000000000000000000000000000000000000000000000000000000007bffffffffffffffffffffffffffffffffffffffffffffffffffffffff1916827bffffffffffffffffffffffffffffffffffffffffffffffffffffffff1916149050919050565b6119e481612606565b611a23576040517f08c379a0000000000000000000000000000000000000000000000000000000008152600401611a1a90613746565b60405180910390fd5b50565b600033905090565b816004600083815260200190815260200160002060006101000a81548173ffffffffffffffffffffffffffffffffffffffff021916908373ffffffffffffffffffffffffffffffffffffffff160217905550808273ffffffffffffffffffffffffffffffffffffffff16611aa183610b25565b73ffffffffffffffffffffffffffffffffffffffff167f8c5be1e5ebec7d5bd14f71427d1e84f3dd0314c0f7b2291e5b200ac8c7c3b92560405160405180910390a45050565b600080611af383610b25565b90508073ffffffffffffffffffffffffffffffffffffffff168473ffffffffffffffffffffffffffffffffffffffff161480611b355750611b3481856118dd565b5b80611b7357508373ffffffffffffffffffffffffffffffffffffffff16611b5b84610664565b73ffffffffffffffffffffffffffffffffffffffff16145b91505092915050565b8273ffffffffffffffffffffffffffffffffffffffff16611b9c82610b25565b73ffffffffffffffffffffffffffffffffffffffff1614611bf2576040517f08c379a0000000000000000000000000000000000000000000000000000000008152600401611be990613b46565b60405180910390fd5b600073ffffffffffffffffffffffffffffffffffffffff168273ffffffffffffffffffffffffffffffffffffffff1603611c61576040517f08c379a0000000000000000000000000000000000000000000000000000000008152600401611c5890613bd8565b60405180910390fd5b611c6e8383836001612647565b8273ffffffffffffffffffffffffffffffffffffffff16611c8e82610b25565b73ffffffffffffffffffffffffffffffffffffffff1614611ce4576040517f08c379a0000000000000000000000000000000000000000000000000000000008152600401611cdb90613b46565b60405180910390fd5b6004600082815260200190815260200160002060006101000a81549073ffffffffffffffffffffffffffffffffffffffff02191690556001600360008573ffffffffffffffffffffffffffffffffffffffff1673ffffffffffffffffffffffffffffffffffffffff168152602001908152602001600020600082825403925050819055506001600360008473ffffffffffffffffffffffffffffffffffffffff1673ffffffffffffffffffffffffffffffffffffffff16815260200190815260200160002060008282540192505081905550816002600083815260200190815260200160002060006101000a81548173ffffffffffffffffffffffffffffffffffffffff021916908373ffffffffffffffffffffffffffffffffffffffff160217905550808273ffffffffffffffffffffffffffffffffffffffff168473ffffffffffffffffffffffffffffffffffffffff167fddf252ad1be2c89b69c2b068fc378daa952ba7f163c4a11628f55a4df523b3ef60405160405180910390a4611e70838383600161276d565b505050565b600081600001549050919050565b60006002600083815260200190815260200160002060009054906101000a900473ffffffffffffffffffffffffffffffffffffffff169050919050565b6001816000016000828254019250508190555050565b600073ffffffffffffffffffffffffffffffffffffffff168273ffffffffffffffffffffffffffffffffffffffff1603611f45576040517f08c379a0000000000000000000000000000000000000000000000000000000008152600401611f3c90613c44565b60405180910390fd5b611f4e81612606565b15611f8e576040517f08c379a0000000000000000000000000000000000000000000000000000000008152600401611f8590613cb0565b60405180910390fd5b611f9c600083836001612647565b611fa581612606565b15611fe5576040517f08c379a0000000000000000000000000000000000000000000000000000000008152600401611fdc90613cb0565b60405180910390fd5b6001600360008473ffffffffffffffffffffffffffffffffffffffff1673ffffffffffffffffffffffffffffffffffffffff16815260200190815260200160002060008282540192505081905550816002600083815260200190815260200160002060006101000a81548173ffffffffffffffffffffffffffffffffffffffff021916908373ffffffffffffffffffffffffffffffffffffffff160217905550808273ffffffffffffffffffffffffffffffffffffffff16600073ffffffffffffffffffffffffffffffffffffffff167fddf252ad1be2c89b69c2b068fc378daa952ba7f163c4a11628f55a4df523b3ef60405160405180910390a46120ef60008383600161276d565b5050565b6120fc82612606565b61213b576040517f08c379a000000000000000000000000000000000000000000000000000000000815260040161213290613d42565b60405180910390fd5b8060066000848152602001908152602001600020908161215b9190613f0e565b505050565b600081116121a3576040517f08c379a000000000000000000000000000000000000000000000000000000000815260040161219a9061402c565b60405180910390fd5b60095434146121e7576040517f08c379a00000000000000000000000000000000000000000000000000000000081526004016121de90613930565b60405180910390fd5b6040518060a001604052808381526020013373ffffffffffffffffffffffffffffffffffffffff1681526020013073ffffffffffffffffffffffffffffffffffffffff16815260200182815260200160001515815250600b60008481526020019081526020016000206000820151816000015560208201518160010160006101000a81548173ffffffffffffffffffffffffffffffffffffffff021916908373ffffffffffffffffffffffffffffffffffffffff16021790555060408201518160020160006101000a81548173ffffffffffffffffffffffffffffffffffffffff021916908373ffffffffffffffffffffffffffffffffffffffff1602179055506060820151816003015560808201518160040160006101000a81548160ff021916908315150217905550905050612320333084611b7c565b817fdebdb32cb5230ab727c9c361b16fdb2015df225c10e6a3e7f60ecd5dc5be45163330846000604051612357949392919061404c565b60405180910390a25050565b600081600001549050600081116123af576040517f08c379a00000000000000000000000000000000000000000000000000000000081526004016123a6906140dd565b60405180910390fd5b6001810382600001819055505050565b8173ffffffffffffffffffffffffffffffffffffffff168373ffffffffffffffffffffffffffffffffffffffff160361242d576040517f08c379a000000000000000000000000000000000000000000000000000000000815260040161242490614149565b60405180910390fd5b80600560008573ffffffffffffffffffffffffffffffffffffffff1673ffffffffffffffffffffffffffffffffffffffff16815260200190815260200160002060008473ffffffffffffffffffffffffffffffffffffffff1673ffffffffffffffffffffffffffffffffffffffff16815260200190815260200160002060006101000a81548160ff0219169083151502179055508173ffffffffffffffffffffffffffffffffffffffff168373ffffffffffffffffffffffffffffffffffffffff167f17307eab39ab6107e8899845ad3d59bd9653f200f220920489ca2b5937696c318360405161251e9190612c4f565b60405180910390a3505050565b612536848484611b7c565b61254284848484612773565b612581576040517f08c379a0000000000000000000000000000000000000000000000000000000008152600401612578906141db565b60405180910390fd5b50505050565b606060405180602001604052806000815250905090565b60606125a9826119db565b60006125b3612587565b905060008151116125d357604051806020016040528060008152506125fe565b806125dd846128fa565b6040516020016125ee929190613ab0565b6040516020818303038152906040525b915050919050565b60008073ffffffffffffffffffffffffffffffffffffffff1661262883611e83565b73ffffffffffffffffffffffffffffffffffffffff1614159050919050565b600181111561276757600073ffffffffffffffffffffffffffffffffffffffff168473ffffffffffffffffffffffffffffffffffffffff16146126db5780600360008673ffffffffffffffffffffffffffffffffffffffff1673ffffffffffffffffffffffffffffffffffffffff16815260200190815260200160002060008282546126d391906137f8565b925050819055505b600073ffffffffffffffffffffffffffffffffffffffff168373ffffffffffffffffffffffffffffffffffffffff16146127665780600360008573ffffffffffffffffffffffffffffffffffffffff1673ffffffffffffffffffffffffffffffffffffffff168152602001908152602001600020600082825461275e919061364f565b925050819055505b5b50505050565b50505050565b60006127948473ffffffffffffffffffffffffffffffffffffffff166129c8565b156128ed578373ffffffffffffffffffffffffffffffffffffffff1663150b7a026127bd611a26565b8786866040518563ffffffff1660e01b81526004016127df9493929190614250565b6020604051808303816000875af192505050801561281b57506040513d601f19601f8201168201806040525081019061281891906142b1565b60015b61289d573d806000811461284b576040519150601f19603f3d011682016040523d82523d6000602084013e612850565b606091505b506000815103612895576040517f08c379a000000000000000000000000000000000000000000000000000000000815260040161288c906141db565b60405180910390fd5b805181602001fd5b63150b7a0260e01b7bffffffffffffffffffffffffffffffffffffffffffffffffffffffff1916817bffffffffffffffffffffffffffffffffffffffffffffffffffffffff1916149150506128f2565b600190505b949350505050565b606060006001612909846129eb565b01905060008167ffffffffffffffff81111561292857612927613073565b5b6040519080825280601f01601f19166020018201604052801561295a5781602001600182028036833780820191505090505b509050600082602001820190505b6001156129bd578080600190039150507f3031323334353637383961626364656600000000000000000000000000000000600a86061a8153600a85816129b1576129b06142de565b5b04945060008503612968575b819350505050919050565b6000808273ffffffffffffffffffffffffffffffffffffffff163b119050919050565b600080600090507a184f03e93ff9f4daa797ed6e38ed64bf6a1f0100000000000000008310612a49577a184f03e93ff9f4daa797ed6e38ed64bf6a1f0100000000000000008381612a3f57612a3e6142de565b5b0492506040810190505b6d04ee2d6d415b85acef81000000008310612a86576d04ee2d6d415b85acef81000000008381612a7c57612a7b6142de565b5b0492506020810190505b662386f26fc100008310612ab557662386f26fc100008381612aab57612aaa6142de565b5b0492506010810190505b6305f5e1008310612ade576305f5e1008381612ad457612ad36142de565b5b0492506008810190505b6127108310612b03576127108381612af957612af86142de565b5b0492506004810190505b60648310612b265760648381612b1c57612b1b6142de565b5b0492506002810190505b600a8310612b35576001810190505b80915050919050565b6040518060a0016040528060008152602001600073ffffffffffffffffffffffffffffffffffffffff168152602001600073ffffffffffffffffffffffffffffffffffffffff168152602001600081526020016000151581525090565b6000604051905090565b600080fd5b600080fd5b60007fffffffff0000000000000000000000000000000000000000000000000000000082169050919050565b612be481612baf565b8114612bef57600080fd5b50565b600081359050612c0181612bdb565b92915050565b600060208284031215612c1d57612c1c612ba5565b5b6000612c2b84828501612bf2565b91505092915050565b60008115159050919050565b612c4981612c34565b82525050565b6000602082019050612c646000830184612c40565b92915050565b600081519050919050565b600082825260208201905092915050565b60005b83811015612ca4578082015181840152602081019050612c89565b60008484015250505050565b6000601f19601f8301169050919050565b6000612ccc82612c6a565b612cd68185612c75565b9350612ce6818560208601612c86565b612cef81612cb0565b840191505092915050565b60006020820190508181036000830152612d148184612cc1565b905092915050565b6000819050919050565b612d2f81612d1c565b8114612d3a57600080fd5b50565b600081359050612d4c81612d26565b92915050565b600060208284031215612d6857612d67612ba5565b5b6000612d7684828501612d3d565b91505092915050565b600073ffffffffffffffffffffffffffffffffffffffff82169050919050565b6000612daa82612d7f565b9050919050565b612dba81612d9f565b82525050565b6000602082019050612dd56000830184612db1565b92915050565b612de481612d9f565b8114612def57600080fd5b50565b600081359050612e0181612ddb565b92915050565b60008060408385031215612e1e57612e1d612ba5565b5b6000612e2c85828601612df2565b9250506020612e3d85828601612d3d565b9150509250929050565b612e5081612d1c565b82525050565b6000602082019050612e6b6000830184612e47565b92915050565b600080600060608486031215612e8a57612e89612ba5565b5b6000612e9886828701612df2565b9350506020612ea986828701612df2565b9250506040612eba86828701612d3d565b9150509250925092565b600081519050919050565b600082825260208201905092915050565b6000819050602082019050919050565b612ef981612d1c565b82525050565b6000612f0a82612d7f565b9050919050565b612f1a81612eff565b82525050565b612f2981612c34565b82525050565b60a082016000820151612f456000850182612ef0565b506020820151612f586020850182612f11565b506040820151612f6b6040850182612f11565b506060820151612f7e6060850182612ef0565b506080820151612f916080850182612f20565b50505050565b6000612fa38383612f2f565b60a08301905092915050565b6000602082019050919050565b6000612fc782612ec4565b612fd18185612ecf565b9350612fdc83612ee0565b8060005b8381101561300d578151612ff48882612f97565b9750612fff83612faf565b925050600181019050612fe0565b5085935050505092915050565b600060208201905081810360008301526130348184612fbc565b905092915050565b60006020828403121561305257613051612ba5565b5b600061306084828501612df2565b91505092915050565b600080fd5b600080fd5b7f4e487b7100000000000000000000000000000000000000000000000000000000600052604160045260246000fd5b6130ab82612cb0565b810181811067ffffffffffffffff821117156130ca576130c9613073565b5b80604052505050565b60006130dd612b9b565b90506130e982826130a2565b919050565b600067ffffffffffffffff82111561310957613108613073565b5b61311282612cb0565b9050602081019050919050565b82818337600083830152505050565b600061314161313c846130ee565b6130d3565b90508281526020810184848401111561315d5761315c61306e565b5b61316884828561311f565b509392505050565b600082601f83011261318557613184613069565b5b813561319584826020860161312e565b91505092915050565b600080604083850312156131b5576131b4612ba5565b5b600083013567ffffffffffffffff8111156131d3576131d2612baa565b5b6131df85828601613170565b92505060206131f085828601612d3d565b9150509250929050565b6000806040838503121561321157613210612ba5565b5b600061321f85828601612d3d565b925050602061323085828601612d3d565b9150509250929050565b61324381612c34565b811461324e57600080fd5b50565b6000813590506132608161323a565b92915050565b6000806040838503121561327d5761327c612ba5565b5b600061328b85828601612df2565b925050602061329c85828601613251565b9150509250929050565b600067ffffffffffffffff8211156132c1576132c0613073565b5b6132ca82612cb0565b9050602081019050919050565b60006132ea6132e5846132a6565b6130d3565b9050828152602081018484840111156133065761330561306e565b5b61331184828561311f565b509392505050565b600082601f83011261332e5761332d613069565b5b813561333e8482602086016132d7565b91505092915050565b6000806000806080858703121561336157613360612ba5565b5b600061336f87828801612df2565b945050602061338087828801612df2565b935050604061339187828801612d3d565b925050606085013567ffffffffffffffff8111156133b2576133b1612baa565b5b6133be87828801613319565b91505092959194509250565b600080604083850312156133e1576133e0612ba5565b5b60006133ef85828601612df2565b925050602061340085828601612df2565b9150509250929050565b7f4e487b7100000000000000000000000000000000000000000000000000000000600052602260045260246000fd5b6000600282049050600182168061345157607f821691505b6020821081036134645761346361340a565b5b50919050565b7f4552433732313a20617070726f76616c20746f2063757272656e74206f776e6560008201527f7200000000000000000000000000000000000000000000000000000000000000602082015250565b60006134c6602183612c75565b91506134d18261346a565b604082019050919050565b600060208201905081810360008301526134f5816134b9565b9050919050565b7f4552433732313a20617070726f76652063616c6c6572206973206e6f7420746f60008201527f6b656e206f776e6572206f7220617070726f76656420666f7220616c6c000000602082015250565b6000613558603d83612c75565b9150613563826134fc565b604082019050919050565b600060208201905081810360008301526135878161354b565b9050919050565b7f4552433732313a2063616c6c6572206973206e6f7420746f6b656e206f776e6560008201527f72206f7220617070726f76656400000000000000000000000000000000000000602082015250565b60006135ea602d83612c75565b91506135f58261358e565b604082019050919050565b60006020820190508181036000830152613619816135dd565b9050919050565b7f4e487b7100000000000000000000000000000000000000000000000000000000600052601160045260246000fd5b600061365a82612d1c565b915061366583612d1c565b925082820190508082111561367d5761367c613620565b5b92915050565b600061368e82612d1c565b91507fffffffffffffffffffffffffffffffffffffffffffffffffffffffffffffffff82036136c0576136bf613620565b5b600182019050919050565b7f4e487b7100000000000000000000000000000000000000000000000000000000600052603260045260246000fd5b7f4552433732313a20696e76616c696420746f6b656e2049440000000000000000600082015250565b6000613730601883612c75565b915061373b826136fa565b602082019050919050565b6000602082019050818103600083015261375f81613723565b9050919050565b7f4552433732313a2061646472657373207a65726f206973206e6f74206120766160008201527f6c6964206f776e65720000000000000000000000000000000000000000000000602082015250565b60006137c2602983612c75565b91506137cd82613766565b604082019050919050565b600060208201905081810360008301526137f1816137b5565b9050919050565b600061380382612d1c565b915061380e83612d1c565b925082820390508181111561382657613825613620565b5b92915050565b7f4f6e6c79206974656d206f776e65722063616e20706572666f726d207468652060008201527f6368616e67650000000000000000000000000000000000000000000000000000602082015250565b6000613888602683612c75565b91506138938261382c565b604082019050919050565b600060208201905081810360008301526138b78161387b565b9050919050565b7f5072696365206d75737420626520657175616c20746f206c697374696e67207060008201527f7269636500000000000000000000000000000000000000000000000000000000602082015250565b600061391a602483612c75565b9150613925826138be565b604082019050919050565b600060208201905081810360008301526139498161390d565b9050919050565b7f6f6e6c79206f776e6572206f6620746865206d61726b6574706c61636520636160008201527f6e206368616e676520746865206c697374696e67207072696365000000000000602082015250565b60006139ac603a83612c75565b91506139b782613950565b604082019050919050565b600060208201905081810360008301526139db8161399f565b9050919050565b7f506c65617365207375626d6974207468652061736b696e67207072696365206960008201527f6e206f7264657220746f20636f6d706c65746520746865207075726368617365602082015250565b6000613a3e604083612c75565b9150613a49826139e2565b604082019050919050565b60006020820190508181036000830152613a6d81613a31565b9050919050565b600081905092915050565b6000613a8a82612c6a565b613a948185613a74565b9350613aa4818560208601612c86565b80840191505092915050565b6000613abc8285613a7f565b9150613ac88284613a7f565b91508190509392505050565b7f4552433732313a207472616e736665722066726f6d20696e636f72726563742060008201527f6f776e6572000000000000000000000000000000000000000000000000000000602082015250565b6000613b30602583612c75565b9150613b3b82613ad4565b604082019050919050565b60006020820190508181036000830152613b5f81613b23565b9050919050565b7f4552433732313a207472616e7366657220746f20746865207a65726f2061646460008201527f7265737300000000000000000000000000000000000000000000000000000000602082015250565b6000613bc2602483612c75565b9150613bcd82613b66565b604082019050919050565b60006020820190508181036000830152613bf181613bb5565b9050919050565b7f4552433732313a206d696e7420746f20746865207a65726f2061646472657373600082015250565b6000613c2e602083612c75565b9150613c3982613bf8565b602082019050919050565b60006020820190508181036000830152613c5d81613c21565b9050919050565b7f4552433732313a20746f6b656e20616c7265616479206d696e74656400000000600082015250565b6000613c9a601c83612c75565b9150613ca582613c64565b602082019050919050565b60006020820190508181036000830152613cc981613c8d565b9050919050565b7f45524337323155524953746f726167653a2055524920736574206f66206e6f6e60008201527f6578697374656e7420746f6b656e000000000000000000000000000000000000602082015250565b6000613d2c602e83612c75565b9150613d3782613cd0565b604082019050919050565b60006020820190508181036000830152613d5b81613d1f565b9050919050565b60008190508160005260206000209050919050565b60006020601f8301049050919050565b600082821b905092915050565b600060088302613dc47fffffffffffffffffffffffffffffffffffffffffffffffffffffffffffffffff82613d87565b613dce8683613d87565b95508019841693508086168417925050509392505050565b6000819050919050565b6000613e0b613e06613e0184612d1c565b613de6565b612d1c565b9050919050565b6000819050919050565b613e2583613df0565b613e39613e3182613e12565b848454613d94565b825550505050565b600090565b613e4e613e41565b613e59818484613e1c565b505050565b5b81811015613e7d57613e72600082613e46565b600181019050613e5f565b5050565b601f821115613ec257613e9381613d62565b613e9c84613d77565b81016020851015613eab578190505b613ebf613eb785613d77565b830182613e5e565b50505b505050565b600082821c905092915050565b6000613ee560001984600802613ec7565b1980831691505092915050565b6000613efe8383613ed4565b9150826002028217905092915050565b613f1782612c6a565b67ffffffffffffffff811115613f3057613f2f613073565b5b613f3a8254613439565b613f45828285613e81565b600060209050601f831160018114613f785760008415613f66578287015190505b613f708582613ef2565b865550613fd8565b601f198416613f8686613d62565b60005b82811015613fae57848901518255600182019150602085019450602081019050613f89565b86831015613fcb5784890151613fc7601f891682613ed4565b8355505b6001600288020188555050505b505050505050565b7f5072696365206d7573742062652061746c657374203100000000000000000000600082015250565b6000614016601683612c75565b915061402182613fe0565b602082019050919050565b6000602082019050818103600083015261404581614009565b9050919050565b60006080820190506140616000830187612db1565b61406e6020830186612db1565b61407b6040830185612e47565b6140886060830184612c40565b95945050505050565b7f436f756e7465723a2064656372656d656e74206f766572666c6f770000000000600082015250565b60006140c7601b83612c75565b91506140d282614091565b602082019050919050565b600060208201905081810360008301526140f6816140ba565b9050919050565b7f4552433732313a20617070726f766520746f2063616c6c657200000000000000600082015250565b6000614133601983612c75565b915061413e826140fd565b602082019050919050565b6000602082019050818103600083015261416281614126565b9050919050565b7f4552433732313a207472616e7366657220746f206e6f6e20455243373231526560008201527f63656976657220696d706c656d656e7465720000000000000000000000000000602082015250565b60006141c5603283612c75565b91506141d082614169565b604082019050919050565b600060208201905081810360008301526141f4816141b8565b9050919050565b600081519050919050565b600082825260208201905092915050565b6000614222826141fb565b61422c8185614206565b935061423c818560208601612c86565b61424581612cb0565b840191505092915050565b60006080820190506142656000830187612db1565b6142726020830186612db1565b61427f6040830185612e47565b81810360608301526142918184614217565b905095945050505050565b6000815190506142ab81612bdb565b92915050565b6000602082840312156142c7576142c6612ba5565b5b60006142d58482850161429c565b91505092915050565b7f4e487b7100000000000000000000000000000000000000000000000000000000600052601260045260246000fdfea26469706673582212205bc80f4d605ba268407658beb9129af3a4dcfd985fb976e1d48daf480648e49064736f6c63430008110033",
  "linkReferences": {},
  "deployedLinkReferences": {}
}